{
  "_format": "hh-sol-artifact-1",
  "contractName": "Surgery",
  "sourceName": "contracts/Surgery.sol",
  "abi": [
    {
      "inputs": [
        {
          "internalType": "string",
          "name": "title",
          "type": "string"
        },
        {
          "internalType": "string",
          "name": "descriptionLink",
          "type": "string"
        },
        {
          "internalType": "string",
          "name": "documentLink",
          "type": "string"
        },
        {
          "internalType": "string",
          "name": "imageLink",
          "type": "string"
        },
        {
          "internalType": "uint256",
          "name": "surgeryDeadline",
          "type": "uint256"
        },
        {
          "internalType": "uint256",
          "name": "requiredAmount",
          "type": "uint256"
        },
        {
          "internalType": "address",
          "name": "surgeryOwner",
          "type": "address"
        }
      ],
      "stateMutability": "nonpayable",
      "type": "constructor"
    },
    {
      "inputs": [],
      "name": "Sugery__FundCompletedError",
      "type": "error"
    },
    {
      "anonymous": false,
      "inputs": [
        {
          "indexed": true,
          "internalType": "address",
          "name": "funder",
          "type": "address"
        },
        {
          "indexed": true,
          "internalType": "uint256",
          "name": "amountFunded",
          "type": "uint256"
        },
        {
          "indexed": true,
          "internalType": "uint256",
          "name": "timeStamp",
          "type": "uint256"
        }
      ],
      "name": "fundedEvent",
      "type": "event"
    },
    {
      "inputs": [],
      "name": "fundSurgery",
      "outputs": [],
      "stateMutability": "payable",
      "type": "function"
    },
    {
      "inputs": [],
      "name": "getAmountRemaining",
      "outputs": [
        {
          "internalType": "uint256",
          "name": "",
          "type": "uint256"
        }
      ],
      "stateMutability": "view",
      "type": "function"
    },
    {
      "inputs": [],
      "name": "getDescriptionLink",
      "outputs": [
        {
          "internalType": "string",
          "name": "",
          "type": "string"
        }
      ],
      "stateMutability": "view",
      "type": "function"
    },
    {
      "inputs": [],
      "name": "getDocumentLink",
      "outputs": [
        {
          "internalType": "string",
          "name": "",
          "type": "string"
        }
      ],
      "stateMutability": "view",
      "type": "function"
    },
    {
      "inputs": [],
      "name": "getImageLink",
      "outputs": [
        {
          "internalType": "string",
          "name": "",
          "type": "string"
        }
      ],
      "stateMutability": "view",
      "type": "function"
    },
    {
      "inputs": [],
      "name": "getOwner",
      "outputs": [
        {
          "internalType": "address",
          "name": "",
          "type": "address"
        }
      ],
      "stateMutability": "view",
      "type": "function"
    },
    {
      "inputs": [],
      "name": "getReceivedAmount",
      "outputs": [
        {
          "internalType": "uint256",
          "name": "",
          "type": "uint256"
        }
      ],
      "stateMutability": "view",
      "type": "function"
    },
    {
      "inputs": [],
      "name": "getRequiredAmount",
      "outputs": [
        {
          "internalType": "uint256",
          "name": "",
          "type": "uint256"
        }
      ],
      "stateMutability": "view",
      "type": "function"
    },
    {
      "inputs": [],
      "name": "getSurgeryDeadline",
      "outputs": [
        {
          "internalType": "uint256",
          "name": "",
          "type": "uint256"
        }
      ],
      "stateMutability": "view",
      "type": "function"
    },
    {
      "inputs": [],
      "name": "getTitle",
      "outputs": [
        {
          "internalType": "string",
          "name": "",
          "type": "string"
        }
      ],
      "stateMutability": "view",
      "type": "function"
    },
    {
      "inputs": [],
      "name": "s_owner",
      "outputs": [
        {
          "internalType": "address payable",
          "name": "",
          "type": "address"
        }
      ],
      "stateMutability": "view",
      "type": "function"
    }
  ],
  "bytecode": "0x60806040523480156200001157600080fd5b5060405162000fde38038062000fde833981810160405281019062000037919062000253565b86600090805190602001906200004f929190620000f7565b50856001908051906020019062000068929190620000f7565b50846002908051906020019062000081929190620000f7565b5083600390805190602001906200009a929190620000f7565b50816004819055508260078190555080600860006101000a81548173ffffffffffffffffffffffffffffffffffffffff021916908373ffffffffffffffffffffffffffffffffffffffff1602179055505050505050505062000578565b828054620001059062000455565b90600052602060002090601f01602090048101928262000129576000855562000175565b82601f106200014457805160ff191683800117855562000175565b8280016001018555821562000175579182015b828111156200017457825182559160200191906001019062000157565b5b50905062000184919062000188565b5090565b5b80821115620001a357600081600090555060010162000189565b5090565b6000620001be620001b884620003ab565b62000382565b905082815260208101848484011115620001dd57620001dc62000524565b5b620001ea8482856200041f565b509392505050565b600081519050620002038162000544565b92915050565b600082601f8301126200022157620002206200051f565b5b815162000233848260208601620001a7565b91505092915050565b6000815190506200024d816200055e565b92915050565b600080600080600080600060e0888a0312156200027557620002746200052e565b5b600088015167ffffffffffffffff81111562000296576200029562000529565b5b620002a48a828b0162000209565b975050602088015167ffffffffffffffff811115620002c857620002c762000529565b5b620002d68a828b0162000209565b965050604088015167ffffffffffffffff811115620002fa57620002f962000529565b5b620003088a828b0162000209565b955050606088015167ffffffffffffffff8111156200032c576200032b62000529565b5b6200033a8a828b0162000209565b94505060806200034d8a828b016200023c565b93505060a0620003608a828b016200023c565b92505060c0620003738a828b01620001f2565b91505092959891949750929550565b60006200038e620003a1565b90506200039c82826200048b565b919050565b6000604051905090565b600067ffffffffffffffff821115620003c957620003c8620004f0565b5b620003d48262000533565b9050602081019050919050565b6000620003ee82620003f5565b9050919050565b600073ffffffffffffffffffffffffffffffffffffffff82169050919050565b6000819050919050565b60005b838110156200043f57808201518184015260208101905062000422565b838111156200044f576000848401525b50505050565b600060028204905060018216806200046e57607f821691505b60208210811415620004855762000484620004c1565b5b50919050565b620004968262000533565b810181811067ffffffffffffffff82111715620004b857620004b7620004f0565b5b80604052505050565b7f4e487b7100000000000000000000000000000000000000000000000000000000600052602260045260246000fd5b7f4e487b7100000000000000000000000000000000000000000000000000000000600052604160045260246000fd5b600080fd5b600080fd5b600080fd5b600080fd5b6000601f19601f8301169050919050565b6200054f81620003e1565b81146200055b57600080fd5b50565b620005698162000415565b81146200057557600080fd5b50565b610a5680620005886000396000f3fe60806040526004361061009c5760003560e01c8063c6173cf911610064578063c6173cf914610178578063c6d08ebb146101a3578063dba3f076146101ce578063dcafd9aa146101f9578063e397824014610203578063ff3c1a8f1461022e5761009c565b80630802e83d146100a15780633c55516c146100cc5780636123fa61146100f7578063893d20e8146101225780639012b9a91461014d575b600080fd5b3480156100ad57600080fd5b506100b6610259565b6040516100c3919061079e565b60405180910390f35b3480156100d857600080fd5b506100e16102eb565b6040516100ee91906107e0565b60405180910390f35b34801561010357600080fd5b5061010c6102f5565b604051610119919061079e565b60405180910390f35b34801561012e57600080fd5b50610137610387565b6040516101449190610768565b60405180910390f35b34801561015957600080fd5b506101626103b1565b60405161016f91906107e0565b60405180910390f35b34801561018457600080fd5b5061018d6103bb565b60405161019a919061079e565b60405180910390f35b3480156101af57600080fd5b506101b861044d565b6040516101c591906107e0565b60405180910390f35b3480156101da57600080fd5b506101e3610457565b6040516101f091906107e0565b60405180910390f35b610201610461565b005b34801561020f57600080fd5b506102186105ef565b6040516102259190610783565b60405180910390f35b34801561023a57600080fd5b50610243610615565b604051610250919061079e565b60405180910390f35b6060600280546102689061092d565b80601f01602080910402602001604051908101604052809291908181526020018280546102949061092d565b80156102e15780601f106102b6576101008083540402835291602001916102e1565b820191906000526020600020905b8154815290600101906020018083116102c457829003601f168201915b5050505050905090565b6000600654905090565b6060600380546103049061092d565b80601f01602080910402602001604051908101604052809291908181526020018280546103309061092d565b801561037d5780601f106103525761010080835404028352916020019161037d565b820191906000526020600020905b81548152906001019060200180831161036057829003601f168201915b5050505050905090565b6000600860009054906101000a900473ffffffffffffffffffffffffffffffffffffffff16905090565b6000600454905090565b6060600180546103ca9061092d565b80601f01602080910402602001604051908101604052809291908181526020018280546103f69061092d565b80156104435780601f1061041857610100808354040283529160200191610443565b820191906000526020600020905b81548152906001019060200180831161042657829003601f168201915b5050505050905090565b6000600754905090565b6000600554905090565b600454346005546104729190610822565b11156104aa576040517f06962ad200000000000000000000000000000000000000000000000000000000815260040160405180910390fd5b34600560008282546104bc9190610822565b925050819055506005546004546104d39190610878565b6006819055506000600860009054906101000a900473ffffffffffffffffffffffffffffffffffffffff1673ffffffffffffffffffffffffffffffffffffffff163460405161052190610753565b60006040518083038185875af1925050503d806000811461055e576040519150601f19603f3d011682016040523d82523d6000602084013e610563565b606091505b50509050806105a7576040517f08c379a000000000000000000000000000000000000000000000000000000000815260040161059e906107c0565b60405180910390fd5b42343373ffffffffffffffffffffffffffffffffffffffff167fbc243aa90d7ba6b673340f4b6b086f033bb9c0531b67995446efe3955947595760405160405180910390a450565b600860009054906101000a900473ffffffffffffffffffffffffffffffffffffffff1681565b6060600080546106249061092d565b80601f01602080910402602001604051908101604052809291908181526020018280546106509061092d565b801561069d5780601f106106725761010080835404028352916020019161069d565b820191906000526020600020905b81548152906001019060200180831161068057829003601f168201915b5050505050905090565b6106b0816108be565b82525050565b6106bf816108ac565b82525050565b60006106d0826107fb565b6106da8185610811565b93506106ea8185602086016108fa565b6106f3816109bd565b840191505092915050565b600061070b602983610811565b9150610716826109ce565b604082019050919050565b600061072e600083610806565b915061073982610a1d565b600082019050919050565b61074d816108f0565b82525050565b600061075e82610721565b9150819050919050565b600060208201905061077d60008301846106b6565b92915050565b600060208201905061079860008301846106a7565b92915050565b600060208201905081810360008301526107b881846106c5565b905092915050565b600060208201905081810360008301526107d9816106fe565b9050919050565b60006020820190506107f56000830184610744565b92915050565b600081519050919050565b600081905092915050565b600082825260208201905092915050565b600061082d826108f0565b9150610838836108f0565b9250827fffffffffffffffffffffffffffffffffffffffffffffffffffffffffffffffff0382111561086d5761086c61095f565b5b828201905092915050565b6000610883826108f0565b915061088e836108f0565b9250828210156108a1576108a061095f565b5b828203905092915050565b60006108b7826108d0565b9050919050565b60006108c9826108d0565b9050919050565b600073ffffffffffffffffffffffffffffffffffffffff82169050919050565b6000819050919050565b60005b838110156109185780820151818401526020810190506108fd565b83811115610927576000848401525b50505050565b6000600282049050600182168061094557607f821691505b602082108114156109595761095861098e565b5b50919050565b7f4e487b7100000000000000000000000000000000000000000000000000000000600052601160045260246000fd5b7f4e487b7100000000000000000000000000000000000000000000000000000000600052602260045260246000fd5b6000601f19601f8301169050919050565b7f5472616e73616374696f6e204661696c65642c20536f6d657468696e6720776560008201527f6e742077726f6e67200000000000000000000000000000000000000000000000602082015250565b5056fea2646970667358221220b5837f2b5a94958db754274973126fa96cf8626b3500ba828e578a447cb6c60d64736f6c63430008070033",
  "linkReferences": {},
  "deployedLinkReferences": {}
}